{
  "_format": "hh-sol-artifact-1",
  "contractName": "Provenance",
  "sourceName": "contracts/Provenance.sol",
  "abi": [
    {
      "inputs": [],
      "name": "provenance",
      "outputs": [
        {
          "internalType": "bytes32",
          "name": "",
          "type": "bytes32"
        }
      ],
      "stateMutability": "view",
      "type": "function"
    },
    {
      "inputs": [],
      "name": "revealTimestamp",
      "outputs": [
        {
          "internalType": "uint256",
          "name": "",
          "type": "uint256"
        }
      ],
      "stateMutability": "view",
      "type": "function"
    },
    {
      "inputs": [],
      "name": "startingIndex",
      "outputs": [
        {
          "internalType": "uint256",
          "name": "",
          "type": "uint256"
        }
      ],
      "stateMutability": "view",
      "type": "function"
    },
    {
      "inputs": [],
      "name": "startingIndexBlock",
      "outputs": [
        {
          "internalType": "uint256",
          "name": "",
          "type": "uint256"
        }
      ],
      "stateMutability": "view",
      "type": "function"
    }
  ],
  "bytecode": "0x608060405234801561001057600080fd5b5061017f806100206000396000f3fe608060405234801561001057600080fd5b506004361061004c5760003560e01c80630f7309e814610051578063cb774d471461006f578063e36d64981461008d578063f62f3c11146100ab575b600080fd5b6100596100c9565b60405161006691906100fa565b60405180910390f35b6100776100cf565b604051610084919061012e565b60405180910390f35b6100956100d5565b6040516100a2919061012e565b60405180910390f35b6100b36100db565b6040516100c0919061012e565b60405180910390f35b60005481565b60015481565b60025481565b60035481565b6000819050919050565b6100f4816100e1565b82525050565b600060208201905061010f60008301846100eb565b92915050565b6000819050919050565b61012881610115565b82525050565b6000602082019050610143600083018461011f565b9291505056fea26469706673582212200d385e8d50b5217f21691a40b1b767ff023d4119df099fbe5f0b2092cfe3178964736f6c634300080a0033",
  "linkReferences": {},
  "deployedLinkReferences": {}
}