{
  "_format": "hh-sol-artifact-1",
  "contractName": "Minter",
  "sourceName": "contracts/Minter.sol",
  "abi": [
    {
      "inputs": [
        {
          "internalType": "address",
          "name": "_tokenContract",
          "type": "address"
        },
        {
          "internalType": "address[]",
          "name": "payees",
          "type": "address[]"
        },
        {
          "internalType": "uint256[]",
          "name": "shares_",
          "type": "uint256[]"
        }
      ],
      "stateMutability": "nonpayable",
      "type": "constructor"
    },
    {
      "anonymous": false,
      "inputs": [
        {
          "indexed": true,
          "internalType": "contract IERC20",
          "name": "token",
          "type": "address"
        },
        {
          "indexed": false,
          "internalType": "address",
          "name": "to",
          "type": "address"
        },
        {
          "indexed": false,
          "internalType": "uint256",
          "name": "amount",
          "type": "uint256"
        }
      ],
      "name": "ERC20PaymentReleased",
      "type": "event"
    },
    {
      "anonymous": false,
      "inputs": [
        {
          "indexed": true,
          "internalType": "address",
          "name": "sender",
          "type": "address"
        },
        {
          "indexed": true,
          "internalType": "uint256",
          "name": "price",
          "type": "uint256"
        },
        {
          "indexed": false,
          "internalType": "uint256",
          "name": "numberMinted",
          "type": "uint256"
        },
        {
          "indexed": false,
          "internalType": "uint256",
          "name": "totalMinted",
          "type": "uint256"
        }
      ],
      "name": "LogMint",
      "type": "event"
    },
    {
      "anonymous": false,
      "inputs": [
        {
          "indexed": false,
          "internalType": "uint256",
          "name": "newPrice",
          "type": "uint256"
        }
      ],
      "name": "LogPriceUpdated",
      "type": "event"
    },
    {
      "anonymous": false,
      "inputs": [
        {
          "indexed": false,
          "internalType": "address",
          "name": "account",
          "type": "address"
        },
        {
          "indexed": false,
          "internalType": "uint256",
          "name": "shares",
          "type": "uint256"
        }
      ],
      "name": "PayeeAdded",
      "type": "event"
    },
    {
      "anonymous": false,
      "inputs": [
        {
          "indexed": false,
          "internalType": "address",
          "name": "from",
          "type": "address"
        },
        {
          "indexed": false,
          "internalType": "uint256",
          "name": "amount",
          "type": "uint256"
        }
      ],
      "name": "PaymentReceived",
      "type": "event"
    },
    {
      "anonymous": false,
      "inputs": [
        {
          "indexed": false,
          "internalType": "address",
          "name": "to",
          "type": "address"
        },
        {
          "indexed": false,
          "internalType": "uint256",
          "name": "amount",
          "type": "uint256"
        }
      ],
      "name": "PaymentReleased",
      "type": "event"
    },
    {
      "anonymous": false,
      "inputs": [
        {
          "indexed": true,
          "internalType": "bytes32",
          "name": "role",
          "type": "bytes32"
        },
        {
          "indexed": true,
          "internalType": "bytes32",
          "name": "previousAdminRole",
          "type": "bytes32"
        },
        {
          "indexed": true,
          "internalType": "bytes32",
          "name": "newAdminRole",
          "type": "bytes32"
        }
      ],
      "name": "RoleAdminChanged",
      "type": "event"
    },
    {
      "anonymous": false,
      "inputs": [
        {
          "indexed": true,
          "internalType": "bytes32",
          "name": "role",
          "type": "bytes32"
        },
        {
          "indexed": true,
          "internalType": "address",
          "name": "account",
          "type": "address"
        },
        {
          "indexed": true,
          "internalType": "address",
          "name": "sender",
          "type": "address"
        }
      ],
      "name": "RoleGranted",
      "type": "event"
    },
    {
      "anonymous": false,
      "inputs": [
        {
          "indexed": true,
          "internalType": "bytes32",
          "name": "role",
          "type": "bytes32"
        },
        {
          "indexed": true,
          "internalType": "address",
          "name": "account",
          "type": "address"
        },
        {
          "indexed": true,
          "internalType": "address",
          "name": "sender",
          "type": "address"
        }
      ],
      "name": "RoleRevoked",
      "type": "event"
    },
    {
      "inputs": [],
      "name": "ADMIN_ROLE",
      "outputs": [
        {
          "internalType": "bytes32",
          "name": "",
          "type": "bytes32"
        }
      ],
      "stateMutability": "view",
      "type": "function"
    },
    {
      "inputs": [],
      "name": "DEFAULT_ADMIN_ROLE",
      "outputs": [
        {
          "internalType": "bytes32",
          "name": "",
          "type": "bytes32"
        }
      ],
      "stateMutability": "view",
      "type": "function"
    },
    {
      "inputs": [],
      "name": "finalizeReveal",
      "outputs": [],
      "stateMutability": "nonpayable",
      "type": "function"
    },
    {
      "inputs": [],
      "name": "flipSaleState",
      "outputs": [],
      "stateMutability": "nonpayable",
      "type": "function"
    },
    {
      "inputs": [],
      "name": "flipSignedMintState",
      "outputs": [],
      "stateMutability": "nonpayable",
      "type": "function"
    },
    {
      "inputs": [
        {
          "internalType": "bytes32",
          "name": "role",
          "type": "bytes32"
        }
      ],
      "name": "getRoleAdmin",
      "outputs": [
        {
          "internalType": "bytes32",
          "name": "",
          "type": "bytes32"
        }
      ],
      "stateMutability": "view",
      "type": "function"
    },
    {
      "inputs": [
        {
          "internalType": "bytes32",
          "name": "role",
          "type": "bytes32"
        },
        {
          "internalType": "uint256",
          "name": "index",
          "type": "uint256"
        }
      ],
      "name": "getRoleMember",
      "outputs": [
        {
          "internalType": "address",
          "name": "",
          "type": "address"
        }
      ],
      "stateMutability": "view",
      "type": "function"
    },
    {
      "inputs": [
        {
          "internalType": "bytes32",
          "name": "role",
          "type": "bytes32"
        }
      ],
      "name": "getRoleMemberCount",
      "outputs": [
        {
          "internalType": "uint256",
          "name": "",
          "type": "uint256"
        }
      ],
      "stateMutability": "view",
      "type": "function"
    },
    {
      "inputs": [
        {
          "internalType": "bytes32",
          "name": "role",
          "type": "bytes32"
        },
        {
          "internalType": "address",
          "name": "account",
          "type": "address"
        }
      ],
      "name": "grantRole",
      "outputs": [],
      "stateMutability": "nonpayable",
      "type": "function"
    },
    {
      "inputs": [
        {
          "internalType": "bytes32",
          "name": "role",
          "type": "bytes32"
        },
        {
          "internalType": "address",
          "name": "account",
          "type": "address"
        }
      ],
      "name": "hasRole",
      "outputs": [
        {
          "internalType": "bool",
          "name": "",
          "type": "bool"
        }
      ],
      "stateMutability": "view",
      "type": "function"
    },
    {
      "inputs": [
        {
          "internalType": "address",
          "name": "sender",
          "type": "address"
        },
        {
          "internalType": "uint256",
          "name": "numberOfTokens",
          "type": "uint256"
        },
        {
          "internalType": "bytes32",
          "name": "nonce",
          "type": "bytes32"
        }
      ],
      "name": "hashTransaction",
      "outputs": [
        {
          "internalType": "bytes32",
          "name": "",
          "type": "bytes32"
        }
      ],
      "stateMutability": "view",
      "type": "function"
    },
    {
      "inputs": [],
      "name": "maxBlockPurchase",
      "outputs": [
        {
          "internalType": "uint256",
          "name": "",
          "type": "uint256"
        }
      ],
      "stateMutability": "view",
      "type": "function"
    },
    {
      "inputs": [],
      "name": "maxWalletPurchase",
      "outputs": [
        {
          "internalType": "uint256",
          "name": "",
          "type": "uint256"
        }
      ],
      "stateMutability": "view",
      "type": "function"
    },
    {
      "inputs": [
        {
          "internalType": "uint256",
          "name": "numberOfTokens",
          "type": "uint256"
        }
      ],
      "name": "mint",
      "outputs": [],
      "stateMutability": "payable",
      "type": "function"
    },
    {
      "inputs": [],
      "name": "mintSigner",
      "outputs": [
        {
          "internalType": "address",
          "name": "",
          "type": "address"
        }
      ],
      "stateMutability": "view",
      "type": "function"
    },
    {
      "inputs": [
        {
          "internalType": "bytes32",
          "name": "",
          "type": "bytes32"
        }
      ],
      "name": "nonces",
      "outputs": [
        {
          "internalType": "bool",
          "name": "",
          "type": "bool"
        }
      ],
      "stateMutability": "view",
      "type": "function"
    },
    {
      "inputs": [
        {
          "internalType": "uint256",
          "name": "index",
          "type": "uint256"
        }
      ],
      "name": "payee",
      "outputs": [
        {
          "internalType": "address",
          "name": "",
          "type": "address"
        }
      ],
      "stateMutability": "view",
      "type": "function"
    },
    {
      "inputs": [],
      "name": "price",
      "outputs": [
        {
          "internalType": "uint256",
          "name": "",
          "type": "uint256"
        }
      ],
      "stateMutability": "view",
      "type": "function"
    },
    {
      "inputs": [],
      "name": "provenance",
      "outputs": [
        {
          "internalType": "bytes32",
          "name": "",
          "type": "bytes32"
        }
      ],
      "stateMutability": "view",
      "type": "function"
    },
    {
      "inputs": [
        {
          "internalType": "address payable",
          "name": "account",
          "type": "address"
        }
      ],
      "name": "release",
      "outputs": [],
      "stateMutability": "nonpayable",
      "type": "function"
    },
    {
      "inputs": [
        {
          "internalType": "contract IERC20",
          "name": "token",
          "type": "address"
        },
        {
          "internalType": "address",
          "name": "account",
          "type": "address"
        }
      ],
      "name": "release",
      "outputs": [],
      "stateMutability": "nonpayable",
      "type": "function"
    },
    {
      "inputs": [
        {
          "internalType": "contract IERC20",
          "name": "token",
          "type": "address"
        },
        {
          "internalType": "address",
          "name": "account",
          "type": "address"
        }
      ],
      "name": "released",
      "outputs": [
        {
          "internalType": "uint256",
          "name": "",
          "type": "uint256"
        }
      ],
      "stateMutability": "view",
      "type": "function"
    },
    {
      "inputs": [
        {
          "internalType": "address",
          "name": "account",
          "type": "address"
        }
      ],
      "name": "released",
      "outputs": [
        {
          "internalType": "uint256",
          "name": "",
          "type": "uint256"
        }
      ],
      "stateMutability": "view",
      "type": "function"
    },
    {
      "inputs": [
        {
          "internalType": "bytes32",
          "name": "role",
          "type": "bytes32"
        },
        {
          "internalType": "address",
          "name": "account",
          "type": "address"
        }
      ],
      "name": "renounceRole",
      "outputs": [],
      "stateMutability": "nonpayable",
      "type": "function"
    },
    {
      "inputs": [
        {
          "internalType": "uint256",
          "name": "num",
          "type": "uint256"
        }
      ],
      "name": "reserveTokens",
      "outputs": [],
      "stateMutability": "nonpayable",
      "type": "function"
    },
    {
      "inputs": [],
      "name": "revealTimestamp",
      "outputs": [
        {
          "internalType": "uint256",
          "name": "",
          "type": "uint256"
        }
      ],
      "stateMutability": "view",
      "type": "function"
    },
    {
      "inputs": [
        {
          "internalType": "bytes32",
          "name": "role",
          "type": "bytes32"
        },
        {
          "internalType": "address",
          "name": "account",
          "type": "address"
        }
      ],
      "name": "revokeRole",
      "outputs": [],
      "stateMutability": "nonpayable",
      "type": "function"
    },
    {
      "inputs": [],
      "name": "saleIsActive",
      "outputs": [
        {
          "internalType": "bool",
          "name": "",
          "type": "bool"
        }
      ],
      "stateMutability": "view",
      "type": "function"
    },
    {
      "inputs": [
        {
          "internalType": "uint256",
          "name": "newMax",
          "type": "uint256"
        }
      ],
      "name": "setMaxBlockPurchase",
      "outputs": [],
      "stateMutability": "nonpayable",
      "type": "function"
    },
    {
      "inputs": [
        {
          "internalType": "uint256",
          "name": "newMax",
          "type": "uint256"
        }
      ],
      "name": "setMaxWalletPurchase",
      "outputs": [],
      "stateMutability": "nonpayable",
      "type": "function"
    },
    {
      "inputs": [
        {
          "internalType": "address",
          "name": "signer",
          "type": "address"
        }
      ],
      "name": "setMintSigner",
      "outputs": [],
      "stateMutability": "nonpayable",
      "type": "function"
    },
    {
      "inputs": [
        {
          "internalType": "uint256",
          "name": "newPrice",
          "type": "uint256"
        }
      ],
      "name": "setPrice",
      "outputs": [],
      "stateMutability": "nonpayable",
      "type": "function"
    },
    {
      "inputs": [
        {
          "internalType": "bytes32",
          "name": "provenanceHash",
          "type": "bytes32"
        }
      ],
      "name": "setProvenance",
      "outputs": [],
      "stateMutability": "nonpayable",
      "type": "function"
    },
    {
      "inputs": [
        {
          "internalType": "uint256",
          "name": "timestamp",
          "type": "uint256"
        }
      ],
      "name": "setRevealTime",
      "outputs": [],
      "stateMutability": "nonpayable",
      "type": "function"
    },
    {
      "inputs": [
        {
          "internalType": "address",
          "name": "account",
          "type": "address"
        }
      ],
      "name": "shares",
      "outputs": [
        {
          "internalType": "uint256",
          "name": "",
          "type": "uint256"
        }
      ],
      "stateMutability": "view",
      "type": "function"
    },
    {
      "inputs": [
        {
          "internalType": "uint256",
          "name": "numberOfTokens",
          "type": "uint256"
        },
        {
          "internalType": "uint256",
          "name": "maxPermitted",
          "type": "uint256"
        },
        {
          "internalType": "bytes",
          "name": "signature",
          "type": "bytes"
        },
        {
          "internalType": "bytes32",
          "name": "nonce",
          "type": "bytes32"
        }
      ],
      "name": "signedMint",
      "outputs": [],
      "stateMutability": "payable",
      "type": "function"
    },
    {
      "inputs": [],
      "name": "signedMintIsActive",
      "outputs": [
        {
          "internalType": "bool",
          "name": "",
          "type": "bool"
        }
      ],
      "stateMutability": "view",
      "type": "function"
    },
    {
      "inputs": [],
      "name": "startingIndex",
      "outputs": [
        {
          "internalType": "uint256",
          "name": "",
          "type": "uint256"
        }
      ],
      "stateMutability": "view",
      "type": "function"
    },
    {
      "inputs": [],
      "name": "startingIndexBlock",
      "outputs": [
        {
          "internalType": "uint256",
          "name": "",
          "type": "uint256"
        }
      ],
      "stateMutability": "view",
      "type": "function"
    },
    {
      "inputs": [
        {
          "internalType": "bytes4",
          "name": "interfaceId",
          "type": "bytes4"
        }
      ],
      "name": "supportsInterface",
      "outputs": [
        {
          "internalType": "bool",
          "name": "",
          "type": "bool"
        }
      ],
      "stateMutability": "view",
      "type": "function"
    },
    {
      "inputs": [
        {
          "internalType": "address",
          "name": "token",
          "type": "address"
        },
        {
          "internalType": "address",
          "name": "to",
          "type": "address"
        },
        {
          "internalType": "uint256",
          "name": "amount",
          "type": "uint256"
        }
      ],
      "name": "sweep",
      "outputs": [
        {
          "internalType": "bool",
          "name": "",
          "type": "bool"
        }
      ],
      "stateMutability": "nonpayable",
      "type": "function"
    },
    {
      "inputs": [],
      "name": "tokenContract",
      "outputs": [
        {
          "internalType": "address",
          "name": "",
          "type": "address"
        }
      ],
      "stateMutability": "view",
      "type": "function"
    },
    {
      "inputs": [
        {
          "internalType": "contract IERC20",
          "name": "token",
          "type": "address"
        }
      ],
      "name": "totalReleased",
      "outputs": [
        {
          "internalType": "uint256",
          "name": "",
          "type": "uint256"
        }
      ],
      "stateMutability": "view",
      "type": "function"
    },
    {
      "inputs": [],
      "name": "totalReleased",
      "outputs": [
        {
          "internalType": "uint256",
          "name": "",
          "type": "uint256"
        }
      ],
      "stateMutability": "view",
      "type": "function"
    },
    {
      "inputs": [],
      "name": "totalShares",
      "outputs": [
        {
          "internalType": "uint256",
          "name": "",
          "type": "uint256"
        }
      ],
      "stateMutability": "view",
      "type": "function"
    },
    {
      "stateMutability": "payable",
      "type": "receive"
    }
  ],
  "bytecode": "0x60806040523480156200001157600080fd5b50604051620060e5380380620060e58339818101604052810190620000379190620009b7565b8181805182511462000080576040517f08c379a0000000000000000000000000000000000000000000000000000000008152600401620000779062000ad8565b60405180910390fd5b6000825111620000c7576040517f08c379a0000000000000000000000000000000000000000000000000000000008152600401620000be9062000b4a565b60405180910390fd5b60005b8251811015620001365762000120838281518110620000ee57620000ed62000b6c565b5b60200260200101518383815181106200010c576200010b62000b6c565b5b6020026020010151620001e860201b60201c565b80806200012d9062000bca565b915050620000ca565b50505082600d60006101000a81548173ffffffffffffffffffffffffffffffffffffffff021916908373ffffffffffffffffffffffffffffffffffffffff1602179055506200019e6000801b620001926200042260201b60201c565b6200042a60201b60201c565b620001df7fa49807205ce4d355092ef5a8a18f56e8913cf4a201fbe287825b095693c21775620001d36200042260201b60201c565b6200042a60201b60201c565b50505062000e66565b600073ffffffffffffffffffffffffffffffffffffffff168273ffffffffffffffffffffffffffffffffffffffff1614156200025b576040517f08c379a0000000000000000000000000000000000000000000000000000000008152600401620002529062000c8e565b60405180910390fd5b60008111620002a1576040517f08c379a0000000000000000000000000000000000000000000000000000000008152600401620002989062000d00565b60405180910390fd5b6000600860008473ffffffffffffffffffffffffffffffffffffffff1673ffffffffffffffffffffffffffffffffffffffff168152602001908152602001600020541462000326576040517f08c379a00000000000000000000000000000000000000000000000000000000081526004016200031d9062000d98565b60405180910390fd5b600a829080600181540180825580915050600190039060005260206000200160009091909190916101000a81548173ffffffffffffffffffffffffffffffffffffffff021916908373ffffffffffffffffffffffffffffffffffffffff16021790555080600860008473ffffffffffffffffffffffffffffffffffffffff1673ffffffffffffffffffffffffffffffffffffffff1681526020019081526020016000208190555080600654620003dd919062000dba565b6006819055507f40c340f65e17194d14ddddb073d3c9f888e3cb52b5aae0c6c7706b4fbc905fac82826040516200041692919062000e39565b60405180910390a15050565b600033905090565b6200043c82826200044060201b60201c565b5050565b6200045782826200048860201b62001ebd1760201c565b6200048381600160008581526020019081526020016000206200057960201b62001f9d1790919060201c565b505050565b6200049a8282620005b160201b60201c565b6200057557600160008084815260200190815260200160002060000160008373ffffffffffffffffffffffffffffffffffffffff1673ffffffffffffffffffffffffffffffffffffffff16815260200190815260200160002060006101000a81548160ff0219169083151502179055506200051a6200042260201b60201c565b73ffffffffffffffffffffffffffffffffffffffff168173ffffffffffffffffffffffffffffffffffffffff16837f2f8788117e7eff1d82e926ec794901d17c78024a50270940304540a733656f0d60405160405180910390a45b5050565b6000620005a9836000018373ffffffffffffffffffffffffffffffffffffffff1660001b6200061b60201b60201c565b905092915050565b600080600084815260200190815260200160002060000160008373ffffffffffffffffffffffffffffffffffffffff1673ffffffffffffffffffffffffffffffffffffffff16815260200190815260200160002060009054906101000a900460ff16905092915050565b60006200062f83836200069560201b60201c565b6200068a5782600001829080600181540180825580915050600190039060005260206000200160009091909190915055826000018054905083600101600084815260200190815260200160002081905550600190506200068f565b600090505b92915050565b600080836001016000848152602001908152602001600020541415905092915050565b6000604051905090565b600080fd5b600080fd5b600073ffffffffffffffffffffffffffffffffffffffff82169050919050565b6000620006f982620006cc565b9050919050565b6200070b81620006ec565b81146200071757600080fd5b50565b6000815190506200072b8162000700565b92915050565b600080fd5b6000601f19601f8301169050919050565b7f4e487b7100000000000000000000000000000000000000000000000000000000600052604160045260246000fd5b620007818262000736565b810181811067ffffffffffffffff82111715620007a357620007a262000747565b5b80604052505050565b6000620007b8620006b8565b9050620007c6828262000776565b919050565b600067ffffffffffffffff821115620007e957620007e862000747565b5b602082029050602081019050919050565b600080fd5b6000620008166200081084620007cb565b620007ac565b905080838252602082019050602084028301858111156200083c576200083b620007fa565b5b835b818110156200086957806200085488826200071a565b8452602084019350506020810190506200083e565b5050509392505050565b600082601f8301126200088b576200088a62000731565b5b81516200089d848260208601620007ff565b91505092915050565b600067ffffffffffffffff821115620008c457620008c362000747565b5b602082029050602081019050919050565b6000819050919050565b620008ea81620008d5565b8114620008f657600080fd5b50565b6000815190506200090a81620008df565b92915050565b6000620009276200092184620008a6565b620007ac565b905080838252602082019050602084028301858111156200094d576200094c620007fa565b5b835b818110156200097a5780620009658882620008f9565b8452602084019350506020810190506200094f565b5050509392505050565b600082601f8301126200099c576200099b62000731565b5b8151620009ae84826020860162000910565b91505092915050565b600080600060608486031215620009d357620009d2620006c2565b5b6000620009e3868287016200071a565b935050602084015167ffffffffffffffff81111562000a075762000a06620006c7565b5b62000a158682870162000873565b925050604084015167ffffffffffffffff81111562000a395762000a38620006c7565b5b62000a478682870162000984565b9150509250925092565b600082825260208201905092915050565b7f5061796d656e7453706c69747465723a2070617965657320616e64207368617260008201527f6573206c656e677468206d69736d617463680000000000000000000000000000602082015250565b600062000ac060328362000a51565b915062000acd8262000a62565b604082019050919050565b6000602082019050818103600083015262000af38162000ab1565b9050919050565b7f5061796d656e7453706c69747465723a206e6f20706179656573000000000000600082015250565b600062000b32601a8362000a51565b915062000b3f8262000afa565b602082019050919050565b6000602082019050818103600083015262000b658162000b23565b9050919050565b7f4e487b7100000000000000000000000000000000000000000000000000000000600052603260045260246000fd5b7f4e487b7100000000000000000000000000000000000000000000000000000000600052601160045260246000fd5b600062000bd782620008d5565b91507fffffffffffffffffffffffffffffffffffffffffffffffffffffffffffffffff82141562000c0d5762000c0c62000b9b565b5b600182019050919050565b7f5061796d656e7453706c69747465723a206163636f756e74206973207468652060008201527f7a65726f20616464726573730000000000000000000000000000000000000000602082015250565b600062000c76602c8362000a51565b915062000c838262000c18565b604082019050919050565b6000602082019050818103600083015262000ca98162000c67565b9050919050565b7f5061796d656e7453706c69747465723a20736861726573206172652030000000600082015250565b600062000ce8601d8362000a51565b915062000cf58262000cb0565b602082019050919050565b6000602082019050818103600083015262000d1b8162000cd9565b9050919050565b7f5061796d656e7453706c69747465723a206163636f756e7420616c726561647960008201527f2068617320736861726573000000000000000000000000000000000000000000602082015250565b600062000d80602b8362000a51565b915062000d8d8262000d22565b604082019050919050565b6000602082019050818103600083015262000db38162000d71565b9050919050565b600062000dc782620008d5565b915062000dd483620008d5565b9250827fffffffffffffffffffffffffffffffffffffffffffffffffffffffffffffffff0382111562000e0c5762000e0b62000b9b565b5b828201905092915050565b62000e2281620006ec565b82525050565b62000e3381620008d5565b82525050565b600060408201905062000e50600083018562000e17565b62000e5f602083018462000e28565b9392505050565b61526f8062000e766000396000f3fe6080604052600436106102765760003560e01c8063a035b1fe1161014f578063d547741f116100c1578063e84a97281161007a578063e84a9728146109cb578063eb8d2444146109f4578063f0b57a6a14610a1f578063f1520f3114610a48578063f17af48d14610a73578063f62f3c1114610a9e576102bd565b8063d547741f146108bb578063d79779b2146108e4578063dddbc55014610921578063e05d9fe71461094c578063e33b7de314610975578063e36d6498146109a0576102bd565b8063c5a41c0311610113578063c5a41c03146107ba578063ca15c873146107d1578063cb774d471461080e578063ce7c2ac214610839578063d031370b14610876578063d2bafe4e1461089f576102bd565b8063a035b1fe146106f4578063a0712d681461071f578063a217fddf1461073b578063a3e9825214610766578063c1e2850714610791576102bd565b806348b75044116101e85780638b83209b116101ac5780638b83209b1461059a5780639010d07c146105d757806391b7f5ed1461061457806391d148541461063d5780639852595c1461067a5780639e317f12146106b7576102bd565b806348b75044146104b557806355a373d6146104de57806362c067671461050957806365370c211461054657806375b238fc1461056f576102bd565b80632f2ff15d1161023a5780632f2ff15d146103cd57806334918dfd146103f65780633575ae671461040d57806336568abe146104245780633a98ef391461044d578063406072a914610478576102bd565b806301ffc9a7146102c25780630f7309e8146102ff578063191655871461032a578063236e8c4d14610353578063248a9ca314610390576102bd565b366102bd577f6ef95f06320e7a25a04a175ca677b7052bdd97131872c2192525a629f51be7706102a4610ac9565b346040516102b39291906137a9565b60405180910390a1005b600080fd5b3480156102ce57600080fd5b506102e960048036038101906102e4919061383e565b610ad1565b6040516102f69190613886565b60405180910390f35b34801561030b57600080fd5b50610314610b4b565b60405161032191906138ba565b60405180910390f35b34801561033657600080fd5b50610351600480360381019061034c9190613913565b610b51565b005b34801561035f57600080fd5b5061037a600480360381019061037591906139c4565b610cfc565b60405161038791906138ba565b60405180910390f35b34801561039c57600080fd5b506103b760048036038101906103b29190613a17565b610d3c565b6040516103c491906138ba565b60405180910390f35b3480156103d957600080fd5b506103f460048036038101906103ef9190613a44565b610d5b565b005b34801561040257600080fd5b5061040b610d84565b005b34801561041957600080fd5b50610422610e20565b005b34801561043057600080fd5b5061044b60048036038101906104469190613a44565b610ebd565b005b34801561045957600080fd5b50610462610f40565b60405161046f9190613a84565b60405180910390f35b34801561048457600080fd5b5061049f600480360381019061049a9190613add565b610f4a565b6040516104ac9190613a84565b60405180910390f35b3480156104c157600080fd5b506104dc60048036038101906104d79190613add565b610fd1565b005b3480156104ea57600080fd5b506104f361128a565b6040516105009190613b1d565b60405180910390f35b34801561051557600080fd5b50610530600480360381019061052b9190613b38565b6112b0565b60405161053d9190613886565b60405180910390f35b34801561055257600080fd5b5061056d60048036038101906105689190613b8b565b6113a9565b005b34801561057b57600080fd5b50610584611423565b60405161059191906138ba565b60405180910390f35b3480156105a657600080fd5b506105c160048036038101906105bc9190613b8b565b611447565b6040516105ce9190613b1d565b60405180910390f35b3480156105e357600080fd5b506105fe60048036038101906105f99190613bb8565b61148f565b60405161060b9190613b1d565b60405180910390f35b34801561062057600080fd5b5061063b60048036038101906106369190613b8b565b6114be565b005b34801561064957600080fd5b50610664600480360381019061065f9190613a44565b61156f565b6040516106719190613886565b60405180910390f35b34801561068657600080fd5b506106a1600480360381019061069c9190613bf8565b6115d9565b6040516106ae9190613a84565b60405180910390f35b3480156106c357600080fd5b506106de60048036038101906106d99190613a17565b611622565b6040516106eb9190613886565b60405180910390f35b34801561070057600080fd5b50610709611642565b6040516107169190613a84565b60405180910390f35b61073960048036038101906107349190613b8b565b611648565b005b34801561074757600080fd5b506107506117d1565b60405161075d91906138ba565b60405180910390f35b34801561077257600080fd5b5061077b6117d8565b6040516107889190613886565b60405180910390f35b34801561079d57600080fd5b506107b860048036038101906107b39190613b8b565b6117eb565b005b3480156107c657600080fd5b506107cf611867565b005b3480156107dd57600080fd5b506107f860048036038101906107f39190613a17565b611903565b6040516108059190613a84565b60405180910390f35b34801561081a57600080fd5b50610823611927565b6040516108309190613a84565b60405180910390f35b34801561084557600080fd5b50610860600480360381019061085b9190613bf8565b61192d565b60405161086d9190613a84565b60405180910390f35b34801561088257600080fd5b5061089d60048036038101906108989190613b8b565b611976565b005b6108b960048036038101906108b49190613d6b565b611a9c565b005b3480156108c757600080fd5b506108e260048036038101906108dd9190613a44565b611c46565b005b3480156108f057600080fd5b5061090b60048036038101906109069190613dee565b611c6f565b6040516109189190613a84565b60405180910390f35b34801561092d57600080fd5b50610936611cb8565b6040516109439190613a84565b60405180910390f35b34801561095857600080fd5b50610973600480360381019061096e9190613b8b565b611cbe565b005b34801561098157600080fd5b5061098a611d38565b6040516109979190613a84565b60405180910390f35b3480156109ac57600080fd5b506109b5611d42565b6040516109c29190613a84565b60405180910390f35b3480156109d757600080fd5b506109f260048036038101906109ed9190613bf8565b611d48565b005b348015610a0057600080fd5b50610a09611dfc565b604051610a169190613886565b60405180910390f35b348015610a2b57600080fd5b50610a466004803603810190610a419190613a17565b611e0f565b005b348015610a5457600080fd5b50610a5d611e8b565b604051610a6a9190613a84565b60405180910390f35b348015610a7f57600080fd5b50610a88611e91565b604051610a959190613b1d565b60405180910390f35b348015610aaa57600080fd5b50610ab3611eb7565b604051610ac09190613a84565b60405180910390f35b600033905090565b60007f5a05180f000000000000000000000000000000000000000000000000000000007bffffffffffffffffffffffffffffffffffffffffffffffffffffffff1916827bffffffffffffffffffffffffffffffffffffffffffffffffffffffff19161480610b445750610b4382611fcd565b5b9050919050565b60025481565b6000600860008373ffffffffffffffffffffffffffffffffffffffff1673ffffffffffffffffffffffffffffffffffffffff1681526020019081526020016000205411610bd3576040517f08c379a0000000000000000000000000000000000000000000000000000000008152600401610bca90613e9e565b60405180910390fd5b6000610bdd611d38565b47610be89190613eed565b90506000610bff8383610bfa866115d9565b612047565b90506000811415610c45576040517f08c379a0000000000000000000000000000000000000000000000000000000008152600401610c3c90613fb5565b60405180910390fd5b80600960008573ffffffffffffffffffffffffffffffffffffffff1673ffffffffffffffffffffffffffffffffffffffff1681526020019081526020016000206000828254610c949190613eed565b925050819055508060076000828254610cad9190613eed565b92505081905550610cbe83826120b5565b7fdf20fd1e76bc69d672e4814fafb2c449bba3a5369d8359adf9e05e6fde87b0568382604051610cef929190614034565b60405180910390a1505050565b6000610d3330858585604051602001610d18949392919061405d565b604051602081830303815290604052805190602001206121a9565b90509392505050565b6000806000838152602001908152602001600020600101549050919050565b610d6482610d3c565b610d7581610d70610ac9565b6121d9565b610d7f8383612276565b505050565b610db57fa49807205ce4d355092ef5a8a18f56e8913cf4a201fbe287825b095693c21775610db0610ac9565b61156f565b610df4576040517f08c379a0000000000000000000000000000000000000000000000000000000008152600401610deb90614114565b60405180910390fd5b601260009054906101000a900460ff1615601260006101000a81548160ff021916908315150217905550565b610ebb600d60009054906101000a900473ffffffffffffffffffffffffffffffffffffffff1673ffffffffffffffffffffffffffffffffffffffff1663d5abeb016040518163ffffffff1660e01b81526004016020604051808303816000875af1158015610e92573d6000803e3d6000fd5b505050506040513d601f19601f82011682018060405250810190610eb69190614149565b6122aa565b565b610ec5610ac9565b73ffffffffffffffffffffffffffffffffffffffff168173ffffffffffffffffffffffffffffffffffffffff1614610f32576040517f08c379a0000000000000000000000000000000000000000000000000000000008152600401610f29906141e8565b60405180910390fd5b610f3c82826123c2565b5050565b6000600654905090565b6000600c60008473ffffffffffffffffffffffffffffffffffffffff1673ffffffffffffffffffffffffffffffffffffffff16815260200190815260200160002060008373ffffffffffffffffffffffffffffffffffffffff1673ffffffffffffffffffffffffffffffffffffffff16815260200190815260200160002054905092915050565b6000600860008373ffffffffffffffffffffffffffffffffffffffff1673ffffffffffffffffffffffffffffffffffffffff1681526020019081526020016000205411611053576040517f08c379a000000000000000000000000000000000000000000000000000000000815260040161104a90613e9e565b60405180910390fd5b600061105e83611c6f565b8373ffffffffffffffffffffffffffffffffffffffff166370a08231306040518263ffffffff1660e01b81526004016110979190613b1d565b602060405180830381865afa1580156110b4573d6000803e3d6000fd5b505050506040513d601f19601f820116820180604052508101906110d89190614149565b6110e29190613eed565b905060006110fa83836110f58787610f4a565b612047565b90506000811415611140576040517f08c379a000000000000000000000000000000000000000000000000000000000815260040161113790613fb5565b60405180910390fd5b80600c60008673ffffffffffffffffffffffffffffffffffffffff1673ffffffffffffffffffffffffffffffffffffffff16815260200190815260200160002060008573ffffffffffffffffffffffffffffffffffffffff1673ffffffffffffffffffffffffffffffffffffffff16815260200190815260200160002060008282546111cc9190613eed565b9250508190555080600b60008673ffffffffffffffffffffffffffffffffffffffff1673ffffffffffffffffffffffffffffffffffffffff16815260200190815260200160002060008282546112229190613eed565b925050819055506112348484836123f6565b8373ffffffffffffffffffffffffffffffffffffffff167f3be5b7a71e84ed12875d241991c70855ac5817d847039e17a9d895c1ceb0f18a848360405161127c9291906137a9565b60405180910390a250505050565b600d60009054906101000a900473ffffffffffffffffffffffffffffffffffffffff1681565b60006112e37fa49807205ce4d355092ef5a8a18f56e8913cf4a201fbe287825b095693c217756112de610ac9565b61156f565b611322576040517f08c379a000000000000000000000000000000000000000000000000000000000815260040161131990614114565b60405180910390fd5b8373ffffffffffffffffffffffffffffffffffffffff1663a9059cbb84846040518363ffffffff1660e01b815260040161135d9291906137a9565b6020604051808303816000875af115801561137c573d6000803e3d6000fd5b505050506040513d601f19601f820116820180604052508101906113a09190614234565b90509392505050565b6113da7fa49807205ce4d355092ef5a8a18f56e8913cf4a201fbe287825b095693c217756113d5610ac9565b61156f565b611419576040517f08c379a000000000000000000000000000000000000000000000000000000000815260040161141090614114565b60405180910390fd5b8060118190555050565b7fa49807205ce4d355092ef5a8a18f56e8913cf4a201fbe287825b095693c2177581565b6000600a828154811061145d5761145c614261565b5b9060005260206000200160009054906101000a900473ffffffffffffffffffffffffffffffffffffffff169050919050565b60006114b6826001600086815260200190815260200160002061247c90919063ffffffff16565b905092915050565b6114ef7fa49807205ce4d355092ef5a8a18f56e8913cf4a201fbe287825b095693c217756114ea610ac9565b61156f565b61152e576040517f08c379a000000000000000000000000000000000000000000000000000000000815260040161152590614114565b60405180910390fd5b80600f819055507ff382320ca3328eca73b923efa9b8df7bd6ea405d6d4fa855a00db3ee406361c9816040516115649190613a84565b60405180910390a150565b600080600084815260200190815260200160002060000160008373ffffffffffffffffffffffffffffffffffffffff1673ffffffffffffffffffffffffffffffffffffffff16815260200190815260200160002060009054906101000a900460ff16905092915050565b6000600960008373ffffffffffffffffffffffffffffffffffffffff1673ffffffffffffffffffffffffffffffffffffffff168152602001908152602001600020549050919050565b60156020528060005260406000206000915054906101000a900460ff1681565b600f5481565b601260009054906101000a900460ff16611697576040517f08c379a000000000000000000000000000000000000000000000000000000000815260040161168e906142dc565b60405180910390fd5b6116a081612496565b6117ce600d60009054906101000a900473ffffffffffffffffffffffffffffffffffffffff1673ffffffffffffffffffffffffffffffffffffffff1663a2309ff86040518163ffffffff1660e01b81526004016020604051808303816000875af1158015611712573d6000803e3d6000fd5b505050506040513d601f19601f820116820180604052508101906117369190614149565b600d60009054906101000a900473ffffffffffffffffffffffffffffffffffffffff1673ffffffffffffffffffffffffffffffffffffffff1663d5abeb016040518163ffffffff1660e01b81526004016020604051808303816000875af11580156117a5573d6000803e3d6000fd5b505050506040513d601f19601f820116820180604052508101906117c99190614149565b612914565b50565b6000801b81565b601260019054906101000a900460ff1681565b61181c7fa49807205ce4d355092ef5a8a18f56e8913cf4a201fbe287825b095693c21775611817610ac9565b61156f565b61185b576040517f08c379a000000000000000000000000000000000000000000000000000000000815260040161185290614114565b60405180910390fd5b61186481612943565b50565b6118987fa49807205ce4d355092ef5a8a18f56e8913cf4a201fbe287825b095693c21775611893610ac9565b61156f565b6118d7576040517f08c379a00000000000000000000000000000000000000000000000000000000081526004016118ce90614114565b60405180910390fd5b601260019054906101000a900460ff1615601260016101000a81548160ff021916908315150217905550565b60006119206001600084815260200190815260200160002061294d565b9050919050565b60035481565b6000600860008373ffffffffffffffffffffffffffffffffffffffff1673ffffffffffffffffffffffffffffffffffffffff168152602001908152602001600020549050919050565b6119a77fa49807205ce4d355092ef5a8a18f56e8913cf4a201fbe287825b095693c217756119a2610ac9565b61156f565b6119e6576040517f08c379a00000000000000000000000000000000000000000000000000000000081526004016119dd90614114565b60405180910390fd5b60005b81811015611a9857600d60009054906101000a900473ffffffffffffffffffffffffffffffffffffffff1673ffffffffffffffffffffffffffffffffffffffff16636a627842611a37610ac9565b6040518263ffffffff1660e01b8152600401611a539190613b1d565b600060405180830381600087803b158015611a6d57600080fd5b505af1158015611a81573d6000803e3d6000fd5b505050508080611a90906142fc565b9150506119e9565b5050565b601260019054906101000a900460ff16611aeb576040517f08c379a0000000000000000000000000000000000000000000000000000000008152600401611ae290614391565b60405180910390fd5b82841115611b2e576040517f08c379a0000000000000000000000000000000000000000000000000000000008152600401611b2590614423565b60405180910390fd5b6000611b67600e60009054906101000a900473ffffffffffffffffffffffffffffffffffffffff16611b61338786610cfc565b85612962565b905080611ba9576040517f08c379a0000000000000000000000000000000000000000000000000000000008152600401611ba09061448f565b60405180910390fd5b6015600083815260200190815260200160002060009054906101000a900460ff1615611c0a576040517f08c379a0000000000000000000000000000000000000000000000000000000008152600401611c01906144fb565b60405180910390fd5b60016015600084815260200190815260200160002060006101000a81548160ff021916908315150217905550611c3f85612496565b5050505050565b611c4f82610d3c565b611c6081611c5b610ac9565b6121d9565b611c6a83836123c2565b505050565b6000600b60008373ffffffffffffffffffffffffffffffffffffffff1673ffffffffffffffffffffffffffffffffffffffff168152602001908152602001600020549050919050565b60115481565b611cef7fa49807205ce4d355092ef5a8a18f56e8913cf4a201fbe287825b095693c21775611cea610ac9565b61156f565b611d2e576040517f08c379a0000000000000000000000000000000000000000000000000000000008152600401611d2590614114565b60405180910390fd5b8060108190555050565b6000600754905090565b60045481565b611d797fa49807205ce4d355092ef5a8a18f56e8913cf4a201fbe287825b095693c21775611d74610ac9565b61156f565b611db8576040517f08c379a0000000000000000000000000000000000000000000000000000000008152600401611daf90614114565b60405180910390fd5b80600e60006101000a81548173ffffffffffffffffffffffffffffffffffffffff021916908373ffffffffffffffffffffffffffffffffffffffff16021790555050565b601260009054906101000a900460ff1681565b611e407fa49807205ce4d355092ef5a8a18f56e8913cf4a201fbe287825b095693c21775611e3b610ac9565b61156f565b611e7f576040517f08c379a0000000000000000000000000000000000000000000000000000000008152600401611e7690614114565b60405180910390fd5b611e8881612b47565b50565b60105481565b600e60009054906101000a900473ffffffffffffffffffffffffffffffffffffffff1681565b60055481565b611ec7828261156f565b611f9957600160008084815260200190815260200160002060000160008373ffffffffffffffffffffffffffffffffffffffff1673ffffffffffffffffffffffffffffffffffffffff16815260200190815260200160002060006101000a81548160ff021916908315150217905550611f3e610ac9565b73ffffffffffffffffffffffffffffffffffffffff168173ffffffffffffffffffffffffffffffffffffffff16837f2f8788117e7eff1d82e926ec794901d17c78024a50270940304540a733656f0d60405160405180910390a45b5050565b6000611fc5836000018373ffffffffffffffffffffffffffffffffffffffff1660001b612b51565b905092915050565b60007f7965db0b000000000000000000000000000000000000000000000000000000007bffffffffffffffffffffffffffffffffffffffffffffffffffffffff1916827bffffffffffffffffffffffffffffffffffffffffffffffffffffffff19161480612040575061203f82612bc1565b5b9050919050565b600081600654600860008773ffffffffffffffffffffffffffffffffffffffff1673ffffffffffffffffffffffffffffffffffffffff1681526020019081526020016000205485612098919061451b565b6120a291906145a4565b6120ac91906145d5565b90509392505050565b804710156120f8576040517f08c379a00000000000000000000000000000000000000000000000000000000081526004016120ef90614655565b60405180910390fd5b60008273ffffffffffffffffffffffffffffffffffffffff168260405161211e906146a6565b60006040518083038185875af1925050503d806000811461215b576040519150601f19603f3d011682016040523d82523d6000602084013e612160565b606091505b50509050806121a4576040517f08c379a000000000000000000000000000000000000000000000000000000000815260040161219b9061472d565b60405180910390fd5b505050565b6000816040516020016121bc91906147c5565b604051602081830303815290604052805190602001209050919050565b6121e3828261156f565b612272576122088173ffffffffffffffffffffffffffffffffffffffff166014612c2b565b6122168360001c6020612c2b565b6040516020016122279291906148f2565b6040516020818303038152906040526040517f08c379a00000000000000000000000000000000000000000000000000000000081526004016122699190614965565b60405180910390fd5b5050565b6122808282611ebd565b6122a58160016000858152602001908152602001600020611f9d90919063ffffffff16565b505050565b6000600354146122ef576040517f08c379a00000000000000000000000000000000000000000000000000000000081526004016122e6906149d3565b60405180910390fd5b60006004541415612335576040517f08c379a000000000000000000000000000000000000000000000000000000000815260040161232c90614a3f565b60405180910390fd5b6001816004544060001c6123499190614a5f565b6123539190613eed565b60038190555060ff6004544361236991906145d5565b111561239e5760018160014361237f91906145d5565b4060001c61238d9190614a5f565b6123979190613eed565b6003819055505b600160035414156123bf5760016003546123b89190613eed565b6003819055505b50565b6123cc8282612e67565b6123f18160016000858152602001908152602001600020612f4890919063ffffffff16565b505050565b6124778363a9059cbb60e01b84846040516024016124159291906137a9565b604051602081830303815290604052907bffffffffffffffffffffffffffffffffffffffffffffffffffffffff19166020820180517bffffffffffffffffffffffffffffffffffffffffffffffffffffffff8381831617835250505050612f78565b505050565b600061248b836000018361303f565b60001c905092915050565b600081116124d9576040517f08c379a00000000000000000000000000000000000000000000000000000000081526004016124d090614adc565b60405180910390fd5b6000600f54141561251f576040517f08c379a000000000000000000000000000000000000000000000000000000000815260040161251690614b48565b60405180910390fd5b600081600f5461252f919061451b565b905034811115612574576040517f08c379a000000000000000000000000000000000000000000000000000000000815260040161256b90614bda565b60405180910390fd5b6000600d60009054906101000a900473ffffffffffffffffffffffffffffffffffffffff1673ffffffffffffffffffffffffffffffffffffffff1663a2309ff86040518163ffffffff1660e01b81526004016020604051808303816000875af11580156125e5573d6000803e3d6000fd5b505050506040513d601f19601f820116820180604052508101906126099190614149565b9050600d60009054906101000a900473ffffffffffffffffffffffffffffffffffffffff1673ffffffffffffffffffffffffffffffffffffffff1663d5abeb016040518163ffffffff1660e01b81526004016020604051808303816000875af115801561267a573d6000803e3d6000fd5b505050506040513d601f19601f8201168201806040525081019061269e9190614149565b83826126aa9190613eed565b11156126eb576040517f08c379a00000000000000000000000000000000000000000000000000000000081526004016126e290614c6c565b60405180910390fd5b6126fa8360105460115461306a565b60005b838110156127a557600d60009054906101000a900473ffffffffffffffffffffffffffffffffffffffff1673ffffffffffffffffffffffffffffffffffffffff16636a627842336040518263ffffffff1660e01b81526004016127609190613b1d565b600060405180830381600087803b15801561277a57600080fd5b505af115801561278e573d6000803e3d6000fd5b50505050808061279d906142fc565b9150506126fd565b50600f543373ffffffffffffffffffffffffffffffffffffffff167f5f11830295067c4bcc7d02d4e3b048cd7427be50a3aeb6afc9d3d559ee64bcfa85600d60009054906101000a900473ffffffffffffffffffffffffffffffffffffffff1673ffffffffffffffffffffffffffffffffffffffff1663a2309ff86040518163ffffffff1660e01b81526004016020604051808303816000875af1158015612851573d6000803e3d6000fd5b505050506040513d601f19601f820116820180604052508101906128759190614149565b604051612883929190614c8c565b60405180910390a33482101561290f5761289b610ac9565b73ffffffffffffffffffffffffffffffffffffffff1682346128bd91906145d5565b6040516128c9906146a6565b60006040518083038185875af1925050503d8060008114612906576040519150601f19603f3d011682016040523d82523d6000602084013e61290b565b606091505b5050505b505050565b600060045414801561293257508082148061293157506005544210155b5b1561293f57436004819055505b5050565b8060058190555050565b600061295b82600001613262565b9050919050565b60008060006129718585613273565b915091506000600481111561298957612988614cb5565b5b81600481111561299c5761299b614cb5565b5b1480156129d457508573ffffffffffffffffffffffffffffffffffffffff168273ffffffffffffffffffffffffffffffffffffffff16145b156129e457600192505050612b40565b6000808773ffffffffffffffffffffffffffffffffffffffff16631626ba7e60e01b8888604051602401612a19929190614d39565b604051602081830303815290604052907bffffffffffffffffffffffffffffffffffffffffffffffffffffffff19166020820180517bffffffffffffffffffffffffffffffffffffffffffffffffffffffff8381831617835250505050604051612a839190614d9a565b600060405180830381855afa9150503d8060008114612abe576040519150601f19603f3d011682016040523d82523d6000602084013e612ac3565b606091505b5091509150818015612ad6575060208151145b8015612b395750631626ba7e60e01b7bffffffffffffffffffffffffffffffffffffffffffffffffffffffff191681806020019051810190612b189190614dc6565b7bffffffffffffffffffffffffffffffffffffffffffffffffffffffff1916145b9450505050505b9392505050565b8060028190555050565b6000612b5d83836132f6565b612bb6578260000182908060018154018082558091505060019003906000526020600020016000909190919091505582600001805490508360010160008481526020019081526020016000208190555060019050612bbb565b600090505b92915050565b60007f01ffc9a7000000000000000000000000000000000000000000000000000000007bffffffffffffffffffffffffffffffffffffffffffffffffffffffff1916827bffffffffffffffffffffffffffffffffffffffffffffffffffffffff1916149050919050565b606060006002836002612c3e919061451b565b612c489190613eed565b67ffffffffffffffff811115612c6157612c60613c40565b5b6040519080825280601f01601f191660200182016040528015612c935781602001600182028036833780820191505090505b5090507f300000000000000000000000000000000000000000000000000000000000000081600081518110612ccb57612cca614261565b5b60200101907effffffffffffffffffffffffffffffffffffffffffffffffffffffffffffff1916908160001a9053507f780000000000000000000000000000000000000000000000000000000000000081600181518110612d2f57612d2e614261565b5b60200101907effffffffffffffffffffffffffffffffffffffffffffffffffffffffffffff1916908160001a90535060006001846002612d6f919061451b565b612d799190613eed565b90505b6001811115612e19577f3031323334353637383961626364656600000000000000000000000000000000600f861660108110612dbb57612dba614261565b5b1a60f81b828281518110612dd257612dd1614261565b5b60200101907effffffffffffffffffffffffffffffffffffffffffffffffffffffffffffff1916908160001a905350600485901c945080612e1290614df3565b9050612d7c565b5060008414612e5d576040517f08c379a0000000000000000000000000000000000000000000000000000000008152600401612e5490614e69565b60405180910390fd5b8091505092915050565b612e71828261156f565b15612f4457600080600084815260200190815260200160002060000160008373ffffffffffffffffffffffffffffffffffffffff1673ffffffffffffffffffffffffffffffffffffffff16815260200190815260200160002060006101000a81548160ff021916908315150217905550612ee9610ac9565b73ffffffffffffffffffffffffffffffffffffffff168173ffffffffffffffffffffffffffffffffffffffff16837ff6391f5c32d9c69d2a47ea670b442974b53935d1edc7fd64eb21e047a839171b60405160405180910390a45b5050565b6000612f70836000018373ffffffffffffffffffffffffffffffffffffffff1660001b613319565b905092915050565b6000612fda826040518060400160405280602081526020017f5361666545524332303a206c6f772d6c6576656c2063616c6c206661696c65648152508573ffffffffffffffffffffffffffffffffffffffff1661342d9092919063ffffffff16565b905060008151111561303a5780806020019051810190612ffa9190614234565b613039576040517f08c379a000000000000000000000000000000000000000000000000000000000815260040161303090614efb565b60405180910390fd5b5b505050565b600082600001828154811061305757613056614261565b5b9060005260206000200154905092915050565b43601360003373ffffffffffffffffffffffffffffffffffffffff1673ffffffffffffffffffffffffffffffffffffffff1681526020019081526020016000205414156130ec576040517f08c379a00000000000000000000000000000000000000000000000000000000081526004016130e390614f8d565b60405180910390fd5b43601360003373ffffffffffffffffffffffffffffffffffffffff1673ffffffffffffffffffffffffffffffffffffffff168152602001908152602001600020819055506000821461317c578183111561317b576040517f08c379a00000000000000000000000000000000000000000000000000000000081526004016131729061501f565b60405180910390fd5b5b6000811461325d5782601460003373ffffffffffffffffffffffffffffffffffffffff1673ffffffffffffffffffffffffffffffffffffffff16815260200190815260200160002060008282546131d39190613eed565b9250508190555080601460003373ffffffffffffffffffffffffffffffffffffffff1673ffffffffffffffffffffffffffffffffffffffff16815260200190815260200160002054111561325c576040517f08c379a00000000000000000000000000000000000000000000000000000000081526004016132539061508b565b60405180910390fd5b5b505050565b600081600001805490509050919050565b6000806041835114156132b55760008060006020860151925060408601519150606086015160001a90506132a987828585613445565b945094505050506132ef565b6040835114156132e65760008060208501519150604085015190506132db868383613552565b9350935050506132ef565b60006002915091505b9250929050565b600080836001016000848152602001908152602001600020541415905092915050565b6000808360010160008481526020019081526020016000205490506000811461342157600060018261334b91906145d5565b905060006001866000018054905061336391906145d5565b90508181146133d257600086600001828154811061338457613383614261565b5b90600052602060002001549050808760000184815481106133a8576133a7614261565b5b90600052602060002001819055508387600101600083815260200190815260200160002081905550505b856000018054806133e6576133e56150ab565b5b600190038181906000526020600020016000905590558560010160008681526020019081526020016000206000905560019350505050613427565b60009150505b92915050565b606061343c84846000856135b1565b90509392505050565b6000807f7fffffffffffffffffffffffffffffff5d576e7357a4501ddfe92f46681b20a08360001c1115613480576000600391509150613549565b601b8560ff16141580156134985750601c8560ff1614155b156134aa576000600491509150613549565b6000600187878787604051600081526020016040526040516134cf94939291906150f6565b6020604051602081039080840390855afa1580156134f1573d6000803e3d6000fd5b505050602060405103519050600073ffffffffffffffffffffffffffffffffffffffff168173ffffffffffffffffffffffffffffffffffffffff16141561354057600060019250925050613549565b80600092509250505b94509492505050565b60008060007f7fffffffffffffffffffffffffffffffffffffffffffffffffffffffffffffff60001b841690506000601b60ff8660001c901c6135959190613eed565b90506135a387828885613445565b935093505050935093915050565b6060824710156135f6576040517f08c379a00000000000000000000000000000000000000000000000000000000081526004016135ed906151ad565b60405180910390fd5b6135ff856136c5565b61363e576040517f08c379a000000000000000000000000000000000000000000000000000000000815260040161363590615219565b60405180910390fd5b6000808673ffffffffffffffffffffffffffffffffffffffff1685876040516136679190614d9a565b60006040518083038185875af1925050503d80600081146136a4576040519150601f19603f3d011682016040523d82523d6000602084013e6136a9565b606091505b50915091506136b98282866136e8565b92505050949350505050565b6000808273ffffffffffffffffffffffffffffffffffffffff163b119050919050565b606083156136f857829050613748565b60008351111561370b5782518084602001fd5b816040517f08c379a000000000000000000000000000000000000000000000000000000000815260040161373f9190614965565b60405180910390fd5b9392505050565b600073ffffffffffffffffffffffffffffffffffffffff82169050919050565b600061377a8261374f565b9050919050565b61378a8161376f565b82525050565b6000819050919050565b6137a381613790565b82525050565b60006040820190506137be6000830185613781565b6137cb602083018461379a565b9392505050565b6000604051905090565b600080fd5b600080fd5b60007fffffffff0000000000000000000000000000000000000000000000000000000082169050919050565b61381b816137e6565b811461382657600080fd5b50565b60008135905061383881613812565b92915050565b600060208284031215613854576138536137dc565b5b600061386284828501613829565b91505092915050565b60008115159050919050565b6138808161386b565b82525050565b600060208201905061389b6000830184613877565b92915050565b6000819050919050565b6138b4816138a1565b82525050565b60006020820190506138cf60008301846138ab565b92915050565b60006138e08261374f565b9050919050565b6138f0816138d5565b81146138fb57600080fd5b50565b60008135905061390d816138e7565b92915050565b600060208284031215613929576139286137dc565b5b6000613937848285016138fe565b91505092915050565b6139498161376f565b811461395457600080fd5b50565b60008135905061396681613940565b92915050565b61397581613790565b811461398057600080fd5b50565b6000813590506139928161396c565b92915050565b6139a1816138a1565b81146139ac57600080fd5b50565b6000813590506139be81613998565b92915050565b6000806000606084860312156139dd576139dc6137dc565b5b60006139eb86828701613957565b93505060206139fc86828701613983565b9250506040613a0d868287016139af565b9150509250925092565b600060208284031215613a2d57613a2c6137dc565b5b6000613a3b848285016139af565b91505092915050565b60008060408385031215613a5b57613a5a6137dc565b5b6000613a69858286016139af565b9250506020613a7a85828601613957565b9150509250929050565b6000602082019050613a99600083018461379a565b92915050565b6000613aaa8261376f565b9050919050565b613aba81613a9f565b8114613ac557600080fd5b50565b600081359050613ad781613ab1565b92915050565b60008060408385031215613af457613af36137dc565b5b6000613b0285828601613ac8565b9250506020613b1385828601613957565b9150509250929050565b6000602082019050613b326000830184613781565b92915050565b600080600060608486031215613b5157613b506137dc565b5b6000613b5f86828701613957565b9350506020613b7086828701613957565b9250506040613b8186828701613983565b9150509250925092565b600060208284031215613ba157613ba06137dc565b5b6000613baf84828501613983565b91505092915050565b60008060408385031215613bcf57613bce6137dc565b5b6000613bdd858286016139af565b9250506020613bee85828601613983565b9150509250929050565b600060208284031215613c0e57613c0d6137dc565b5b6000613c1c84828501613957565b91505092915050565b600080fd5b600080fd5b6000601f19601f8301169050919050565b7f4e487b7100000000000000000000000000000000000000000000000000000000600052604160045260246000fd5b613c7882613c2f565b810181811067ffffffffffffffff82111715613c9757613c96613c40565b5b80604052505050565b6000613caa6137d2565b9050613cb68282613c6f565b919050565b600067ffffffffffffffff821115613cd657613cd5613c40565b5b613cdf82613c2f565b9050602081019050919050565b82818337600083830152505050565b6000613d0e613d0984613cbb565b613ca0565b905082815260208101848484011115613d2a57613d29613c2a565b5b613d35848285613cec565b509392505050565b600082601f830112613d5257613d51613c25565b5b8135613d62848260208601613cfb565b91505092915050565b60008060008060808587031215613d8557613d846137dc565b5b6000613d9387828801613983565b9450506020613da487828801613983565b935050604085013567ffffffffffffffff811115613dc557613dc46137e1565b5b613dd187828801613d3d565b9250506060613de2878288016139af565b91505092959194509250565b600060208284031215613e0457613e036137dc565b5b6000613e1284828501613ac8565b91505092915050565b600082825260208201905092915050565b7f5061796d656e7453706c69747465723a206163636f756e7420686173206e6f2060008201527f7368617265730000000000000000000000000000000000000000000000000000602082015250565b6000613e88602683613e1b565b9150613e9382613e2c565b604082019050919050565b60006020820190508181036000830152613eb781613e7b565b9050919050565b7f4e487b7100000000000000000000000000000000000000000000000000000000600052601160045260246000fd5b6000613ef882613790565b9150613f0383613790565b9250827fffffffffffffffffffffffffffffffffffffffffffffffffffffffffffffffff03821115613f3857613f37613ebe565b5b828201905092915050565b7f5061796d656e7453706c69747465723a206163636f756e74206973206e6f742060008201527f647565207061796d656e74000000000000000000000000000000000000000000602082015250565b6000613f9f602b83613e1b565b9150613faa82613f43565b604082019050919050565b60006020820190508181036000830152613fce81613f92565b9050919050565b6000819050919050565b6000613ffa613ff5613ff08461374f565b613fd5565b61374f565b9050919050565b600061400c82613fdf565b9050919050565b600061401e82614001565b9050919050565b61402e81614013565b82525050565b60006040820190506140496000830185614025565b614056602083018461379a565b9392505050565b60006080820190506140726000830187613781565b61407f6020830186613781565b61408c604083018561379a565b61409960608301846138ab565b95945050505050565b7f6f6e6c7941646d696e3a2063616c6c6572206973206e6f74207468652061646d60008201527f696e000000000000000000000000000000000000000000000000000000000000602082015250565b60006140fe602283613e1b565b9150614109826140a2565b604082019050919050565b6000602082019050818103600083015261412d816140f1565b9050919050565b6000815190506141438161396c565b92915050565b60006020828403121561415f5761415e6137dc565b5b600061416d84828501614134565b91505092915050565b7f416363657373436f6e74726f6c3a2063616e206f6e6c792072656e6f756e636560008201527f20726f6c657320666f722073656c660000000000000000000000000000000000602082015250565b60006141d2602f83613e1b565b91506141dd82614176565b604082019050919050565b60006020820190508181036000830152614201816141c5565b9050919050565b6142118161386b565b811461421c57600080fd5b50565b60008151905061422e81614208565b92915050565b60006020828403121561424a576142496137dc565b5b60006142588482850161421f565b91505092915050565b7f4e487b7100000000000000000000000000000000000000000000000000000000600052603260045260246000fd5b7f4d696e7465723a2053616c65206973206e6f7420616374697665000000000000600082015250565b60006142c6601a83613e1b565b91506142d182614290565b602082019050919050565b600060208201905081810360008301526142f5816142b9565b9050919050565b600061430782613790565b91507fffffffffffffffffffffffffffffffffffffffffffffffffffffffffffffffff82141561433a57614339613ebe565b5b600182019050919050565b7f4d696e7465723a207369676e65644d696e74206973206e6f7420616374697665600082015250565b600061437b602083613e1b565b915061438682614345565b602082019050919050565b600060208201905081810360008301526143aa8161436e565b9050919050565b7f4d696e7465723a206e756d6265724f66546f6b656e732065786365656473206d60008201527f61785065726d6974746564000000000000000000000000000000000000000000602082015250565b600061440d602b83613e1b565b9150614418826143b1565b604082019050919050565b6000602082019050818103600083015261443c81614400565b9050919050565b7f4d696e7465723a20696e76616c6964207369676e617475726500000000000000600082015250565b6000614479601983613e1b565b915061448482614443565b602082019050919050565b600060208201905081810360008301526144a88161446c565b9050919050565b7f4d696e7465723a206e6f6e636520616c72656164792075736564000000000000600082015250565b60006144e5601a83613e1b565b91506144f0826144af565b602082019050919050565b60006020820190508181036000830152614514816144d8565b9050919050565b600061452682613790565b915061453183613790565b9250817fffffffffffffffffffffffffffffffffffffffffffffffffffffffffffffffff048311821515161561456a57614569613ebe565b5b828202905092915050565b7f4e487b7100000000000000000000000000000000000000000000000000000000600052601260045260246000fd5b60006145af82613790565b91506145ba83613790565b9250826145ca576145c9614575565b5b828204905092915050565b60006145e082613790565b91506145eb83613790565b9250828210156145fe576145fd613ebe565b5b828203905092915050565b7f416464726573733a20696e73756666696369656e742062616c616e6365000000600082015250565b600061463f601d83613e1b565b915061464a82614609565b602082019050919050565b6000602082019050818103600083015261466e81614632565b9050919050565b600081905092915050565b50565b6000614690600083614675565b915061469b82614680565b600082019050919050565b60006146b182614683565b9150819050919050565b7f416464726573733a20756e61626c6520746f2073656e642076616c75652c207260008201527f6563697069656e74206d61792068617665207265766572746564000000000000602082015250565b6000614717603a83613e1b565b9150614722826146bb565b604082019050919050565b600060208201905081810360008301526147468161470a565b9050919050565b600081905092915050565b7f19457468657265756d205369676e6564204d6573736167653a0a333200000000600082015250565b600061478e601c8361474d565b915061479982614758565b601c82019050919050565b6000819050919050565b6147bf6147ba826138a1565b6147a4565b82525050565b60006147d082614781565b91506147dc82846147ae565b60208201915081905092915050565b7f416363657373436f6e74726f6c3a206163636f756e7420000000000000000000600082015250565b600061482160178361474d565b915061482c826147eb565b601782019050919050565b600081519050919050565b60005b83811015614860578082015181840152602081019050614845565b8381111561486f576000848401525b50505050565b600061488082614837565b61488a818561474d565b935061489a818560208601614842565b80840191505092915050565b7f206973206d697373696e6720726f6c6520000000000000000000000000000000600082015250565b60006148dc60118361474d565b91506148e7826148a6565b601182019050919050565b60006148fd82614814565b91506149098285614875565b9150614914826148cf565b91506149208284614875565b91508190509392505050565b600061493782614837565b6149418185613e1b565b9350614951818560208601614842565b61495a81613c2f565b840191505092915050565b6000602082019050818103600083015261497f818461492c565b905092915050565b7f5374617274696e6720696e64657820697320616c726561647920736574000000600082015250565b60006149bd601d83613e1b565b91506149c882614987565b602082019050919050565b600060208201905081810360008301526149ec816149b0565b9050919050565b7f5374617274696e6720696e64657820626c6f636b206d75737420626520736574600082015250565b6000614a29602083613e1b565b9150614a34826149f3565b602082019050919050565b60006020820190508181036000830152614a5881614a1c565b9050919050565b6000614a6a82613790565b9150614a7583613790565b925082614a8557614a84614575565b5b828206905092915050565b7f4d696e7465723a206e756d6265724f66546f6b656e7320697320300000000000600082015250565b6000614ac6601b83613e1b565b9150614ad182614a90565b602082019050919050565b60006020820190508181036000830152614af581614ab9565b9050919050565b7f4d696e7465723a207072696365206e6f74207365740000000000000000000000600082015250565b6000614b32601583613e1b565b9150614b3d82614afc565b602082019050919050565b60006020820190508181036000830152614b6181614b25565b9050919050565b7f4d696e7465723a2053656e742065746865722076616c756520697320696e636f60008201527f7272656374000000000000000000000000000000000000000000000000000000602082015250565b6000614bc4602583613e1b565b9150614bcf82614b68565b604082019050919050565b60006020820190508181036000830152614bf381614bb7565b9050919050565b7f4d696e7465723a20507572636861736520776f756c6420657863656564206d6160008201527f7820737570706c79000000000000000000000000000000000000000000000000602082015250565b6000614c56602883613e1b565b9150614c6182614bfa565b604082019050919050565b60006020820190508181036000830152614c8581614c49565b9050919050565b6000604082019050614ca1600083018561379a565b614cae602083018461379a565b9392505050565b7f4e487b7100000000000000000000000000000000000000000000000000000000600052602160045260246000fd5b600081519050919050565b600082825260208201905092915050565b6000614d0b82614ce4565b614d158185614cef565b9350614d25818560208601614842565b614d2e81613c2f565b840191505092915050565b6000604082019050614d4e60008301856138ab565b8181036020830152614d608184614d00565b90509392505050565b6000614d7482614ce4565b614d7e8185614675565b9350614d8e818560208601614842565b80840191505092915050565b6000614da68284614d69565b915081905092915050565b600081519050614dc081613812565b92915050565b600060208284031215614ddc57614ddb6137dc565b5b6000614dea84828501614db1565b91505092915050565b6000614dfe82613790565b91506000821415614e1257614e11613ebe565b5b600182039050919050565b7f537472696e67733a20686578206c656e67746820696e73756666696369656e74600082015250565b6000614e53602083613e1b565b9150614e5e82614e1d565b602082019050919050565b60006020820190508181036000830152614e8281614e46565b9050919050565b7f5361666545524332303a204552433230206f7065726174696f6e20646964206e60008201527f6f74207375636365656400000000000000000000000000000000000000000000602082015250565b6000614ee5602a83613e1b565b9150614ef082614e89565b604082019050919050565b60006020820190508181036000830152614f1481614ed8565b9050919050565b7f4d696e7465723a2053656e64657220616c7265616479206d696e74656420746860008201527f697320626c6f636b000000000000000000000000000000000000000000000000602082015250565b6000614f77602883613e1b565b9150614f8282614f1b565b604082019050919050565b60006020820190508181036000830152614fa681614f6a565b9050919050565b7f4d696e7465723a206d6178426c6f636b5075726368617365206578636565646560008201527f6400000000000000000000000000000000000000000000000000000000000000602082015250565b6000615009602183613e1b565b915061501482614fad565b604082019050919050565b6000602082019050818103600083015261503881614ffc565b9050919050565b7f4d696e7465723a2053656e6465722072656163686564206d696e74206d617800600082015250565b6000615075601f83613e1b565b91506150808261503f565b602082019050919050565b600060208201905081810360008301526150a481615068565b9050919050565b7f4e487b7100000000000000000000000000000000000000000000000000000000600052603160045260246000fd5b600060ff82169050919050565b6150f0816150da565b82525050565b600060808201905061510b60008301876138ab565b61511860208301866150e7565b61512560408301856138ab565b61513260608301846138ab565b95945050505050565b7f416464726573733a20696e73756666696369656e742062616c616e636520666f60008201527f722063616c6c0000000000000000000000000000000000000000000000000000602082015250565b6000615197602683613e1b565b91506151a28261513b565b604082019050919050565b600060208201905081810360008301526151c68161518a565b9050919050565b7f416464726573733a2063616c6c20746f206e6f6e2d636f6e7472616374000000600082015250565b6000615203601d83613e1b565b915061520e826151cd565b602082019050919050565b60006020820190508181036000830152615232816151f6565b905091905056fea2646970667358221220a4161c025f9935f98132aff630516e3776d25ffb3b58414e85eb084d6e9663da64736f6c634300080a0033",
  "linkReferences": {},
  "deployedLinkReferences": {}
}