{
  "_format": "hh-sol-artifact-1",
  "contractName": "MintTwiceInBlock",
  "sourceName": "contracts/mocks/MintTwiceInBlock.sol",
  "abi": [
    {
      "inputs": [
        {
          "internalType": "address",
          "name": "minter",
          "type": "address"
        },
        {
          "internalType": "uint256",
          "name": "cost",
          "type": "uint256"
        },
        {
          "internalType": "uint256",
          "name": "numberToMint",
          "type": "uint256"
        }
      ],
      "name": "mintTwoTimes",
      "outputs": [],
      "stateMutability": "payable",
      "type": "function"
    }
  ],
  "bytecode": "0x608060405234801561001057600080fd5b50610268806100206000396000f3fe60806040526004361061001e5760003560e01c8063d24eaf0c14610023575b600080fd5b61003d600480360381019061003891906101b5565b61003f565b005b8273ffffffffffffffffffffffffffffffffffffffff1663a0712d6883836040518363ffffffff1660e01b81526004016100799190610217565b6000604051808303818588803b15801561009257600080fd5b505af11580156100a6573d6000803e3d6000fd5b50505050508273ffffffffffffffffffffffffffffffffffffffff1663a0712d6883836040518363ffffffff1660e01b81526004016100e59190610217565b6000604051808303818588803b1580156100fe57600080fd5b505af1158015610112573d6000803e3d6000fd5b5050505050505050565b600080fd5b600073ffffffffffffffffffffffffffffffffffffffff82169050919050565b600061014c82610121565b9050919050565b61015c81610141565b811461016757600080fd5b50565b60008135905061017981610153565b92915050565b6000819050919050565b6101928161017f565b811461019d57600080fd5b50565b6000813590506101af81610189565b92915050565b6000806000606084860312156101ce576101cd61011c565b5b60006101dc8682870161016a565b93505060206101ed868287016101a0565b92505060406101fe868287016101a0565b9150509250925092565b6102118161017f565b82525050565b600060208201905061022c6000830184610208565b9291505056fea264697066735822122008b381582d0731c4a9764043df9abfb78fed5787bddf2463294f73bab2f3ea3a64736f6c634300080a0033",
  "linkReferences": {},
  "deployedLinkReferences": {}
}